{
  "contractName": "EcommerceStore",
  "abi": [
    {
      "constant": true,
      "inputs": [
        {
          "name": "_productId",
          "type": "uint256"
        }
      ],
      "name": "totalBids",
      "outputs": [
        {
          "name": "",
          "type": "uint256"
        }
      ],
      "payable": false,
      "stateMutability": "view",
      "type": "function"
    },
    {
      "constant": false,
      "inputs": [
        {
          "name": "_name",
          "type": "string"
        },
        {
          "name": "_category",
          "type": "string"
        },
        {
          "name": "_imageLink",
          "type": "string"
        },
        {
          "name": "_descLink",
          "type": "string"
        },
        {
          "name": "_auctionStartTime",
          "type": "uint256"
        },
        {
          "name": "_auctionEndTime",
          "type": "uint256"
        },
        {
          "name": "_startPrice",
          "type": "uint256"
        },
        {
          "name": "_productCondition",
          "type": "uint256"
        }
      ],
      "name": "addProductToStore",
      "outputs": [],
      "payable": false,
      "stateMutability": "nonpayable",
      "type": "function"
    },
    {
      "constant": true,
      "inputs": [
        {
          "name": "_productId",
          "type": "uint256"
        }
      ],
      "name": "getProduct",
      "outputs": [
        {
          "name": "",
          "type": "uint256"
        },
        {
          "name": "",
          "type": "string"
        },
        {
          "name": "",
          "type": "string"
        },
        {
          "name": "",
          "type": "string"
        },
        {
          "name": "",
          "type": "string"
        },
        {
          "name": "",
          "type": "uint256"
        },
        {
          "name": "",
          "type": "uint256"
        },
        {
          "name": "",
          "type": "uint256"
        },
        {
          "name": "",
          "type": "uint8"
        },
        {
          "name": "",
          "type": "uint8"
        }
      ],
      "payable": false,
      "stateMutability": "view",
      "type": "function"
    },
    {
      "constant": true,
      "inputs": [],
      "name": "productIndex",
      "outputs": [
        {
          "name": "",
          "type": "uint256"
        }
      ],
      "payable": false,
      "stateMutability": "view",
      "type": "function"
    },
    {
      "constant": true,
      "inputs": [
        {
          "name": "_productId",
          "type": "uint256"
        }
      ],
      "name": "highestBidderInfo",
      "outputs": [
        {
          "name": "",
          "type": "address"
        },
        {
          "name": "",
          "type": "uint256"
        },
        {
          "name": "",
          "type": "uint256"
        }
      ],
      "payable": false,
      "stateMutability": "view",
      "type": "function"
    },
    {
      "constant": false,
      "inputs": [
        {
          "name": "_productId",
          "type": "uint256"
        },
        {
          "name": "_bid",
          "type": "bytes32"
        }
      ],
      "name": "bid",
      "outputs": [
        {
          "name": "",
          "type": "bool"
        }
      ],
      "payable": true,
      "stateMutability": "payable",
      "type": "function"
    },
    {
      "constant": false,
      "inputs": [
        {
          "name": "_productId",
          "type": "uint256"
        },
        {
          "name": "_amount",
          "type": "string"
        },
        {
          "name": "_secret",
          "type": "string"
        }
      ],
      "name": "revealBid",
      "outputs": [],
      "payable": false,
      "stateMutability": "nonpayable",
      "type": "function"
    },
    {
      "inputs": [],
      "payable": false,
      "stateMutability": "nonpayable",
      "type": "constructor"
    }
  ],
  "bytecode": "0x6060604052341561000f57600080fd5b600080556119a1806100226000396000f300606060405236156100805763ffffffff7c010000000000000000000000000000000000000000000000000000000060003504166328e3d1908114610085578063a508b955146100ad578063b9db15b4146101d9578063c897d5a6146103e8578063ce818ea9146103fb578063ea1591bb14610447578063f85f196e14610469575b600080fd5b341561009057600080fd5b61009b600435610501565b60405190815260200160405180910390f35b34156100b857600080fd5b6101d760046024813581810190830135806020601f8201819004810201604051908101604052818152929190602084018383808284378201915050505050509190803590602001908201803590602001908080601f01602080910402602001604051908101604052818152929190602084018383808284378201915050505050509190803590602001908201803590602001908080601f01602080910402602001604051908101604052818152929190602084018383808284378201915050505050509190803590602001908201803590602001908080601f01602080910402602001604051908101604052818152929190602084018383808284375094965050843594602081013594506040810135935060600135915061088a9050565b005b34156101e457600080fd5b6101ef600435610ac1565b604051808b8152602001806020018060200180602001806020018a815260200189815260200188815260200187600281111561022757fe5b60ff16815260200186600181111561023b57fe5b60ff16815260200185810385528e818151815260200191508051906020019080838360005b83811015610278578082015183820152602001610260565b50505050905090810190601f1680156102a55780820380516001836020036101000a031916815260200191505b5085810384528d818151815260200191508051906020019080838360005b838110156102db5780820151838201526020016102c3565b50505050905090810190601f1680156103085780820380516001836020036101000a031916815260200191505b5085810383528c818151815260200191508051906020019080838360005b8381101561033e578082015183820152602001610326565b50505050905090810190601f16801561036b5780820380516001836020036101000a031916815260200191505b5085810382528b818151815260200191508051906020019080838360005b838110156103a1578082015183820152602001610389565b50505050905090810190601f1680156103ce5780820380516001836020036101000a031916815260200191505b509e50505050505050505050505050505060405180910390f35b34156103f357600080fd5b61009b610ec4565b341561040657600080fd5b610411600435610eca565b6040518084600160a060020a0316600160a060020a03168152602001838152602001828152602001935050505060405180910390f35b610455600435602435611269565b604051901515815260200160405180910390f35b341561047457600080fd5b6101d7600480359060446024803590810190830135806020601f8201819004810201604051908101604052818152929190602084018383808284378201915050505050509190803590602001908201803590602001908080601f0160208091040260200160405190810160405281815292919060208401838380828437509496506113a895505050505050565b600061050b611806565b600083815260026020908152604080832054600160a060020a031683526001825280832086845290915290819020906101c09051908101604052908160008201548152602001600182018054600181600116156101000203166002900480601f0160208091040260200160405190810160405280929190818152602001828054600181600116156101000203166002900480156105e95780601f106105be576101008083540402835291602001916105e9565b820191906000526020600020905b8154815290600101906020018083116105cc57829003601f168201915b50505050508152602001600282018054600181600116156101000203166002900480601f01602080910402602001604051908101604052809291908181526020018280546001816001161561010002031660029004801561068b5780601f106106605761010080835404028352916020019161068b565b820191906000526020600020905b81548152906001019060200180831161066e57829003601f168201915b50505050508152602001600382018054600181600116156101000203166002900480601f01602080910402602001604051908101604052809291908181526020018280546001816001161561010002031660029004801561072d5780601f106107025761010080835404028352916020019161072d565b820191906000526020600020905b81548152906001019060200180831161071057829003601f168201915b50505050508152602001600482018054600181600116156101000203166002900480601f0160208091040260200160405190810160405280929190818152602001828054600181600116156101000203166002900480156107cf5780601f106107a4576101008083540402835291602001916107cf565b820191906000526020600020905b8154815290600101906020018083116107b257829003601f168201915b50505091835250506005820154602082015260068201546040820152600782015460608201526008820154600160a060020a03166080820152600982015460a0820152600a82015460c0820152600b82015460e0820152600c8201546101009091019060ff16600281111561084057fe5b600281111561084b57fe5b8152602001600c820160019054906101000a900460ff16600181111561086d57fe5b600181111561087857fe5b90525090506101608101519392505050565b610892611806565b6000805460010190556101c06040519081016040528060005481526020018a81526020018981526020018881526020018781526020018681526020018581526020018481526020016000600160a060020a031681526020016000815260200160008152602001600081526020016000600281111561090c57fe5b815260200183600181111561091d57fe5b600181111561092857fe5b9052600160a060020a03331660009081526001602090815260408083208354845290915290209091508190815181556020820151816001019080516109719291602001906118a1565b5060408201518160020190805161098c9291602001906118a1565b506060820151816003019080516109a79291602001906118a1565b506080820151816004019080516109c29291602001906118a1565b5060a0820151816005015560c0820151816006015560e0820151816007015561010082015160088201805473ffffffffffffffffffffffffffffffffffffffff1916600160a060020a0392909216919091179055610120820151816009015561014082015181600a015561016082015181600b0155610180820151600c8201805460ff19166001836002811115610a5557fe5b02179055506101a0820151600c8201805461ff001916610100836001811115610a7a57fe5b021790555050600080548152600260205260409020805473ffffffffffffffffffffffffffffffffffffffff191633600160a060020a031617905550505050505050505050565b6000610acb61191f565b610ad361191f565b610adb61191f565b610ae361191f565b6000806000806000610af3611806565b60008c815260026020908152604080832054600160a060020a03168352600182528083208f845290915290819020906101c09051908101604052908160008201548152602001600182018054600181600116156101000203166002900480601f016020809104026020016040519081016040528092919081815260200182805460018160011615610100020316600290048015610bd15780601f10610ba657610100808354040283529160200191610bd1565b820191906000526020600020905b815481529060010190602001808311610bb457829003601f168201915b50505050508152602001600282018054600181600116156101000203166002900480601f016020809104026020016040519081016040528092919081815260200182805460018160011615610100020316600290048015610c735780601f10610c4857610100808354040283529160200191610c73565b820191906000526020600020905b815481529060010190602001808311610c5657829003601f168201915b50505050508152602001600382018054600181600116156101000203166002900480601f016020809104026020016040519081016040528092919081815260200182805460018160011615610100020316600290048015610d155780601f10610cea57610100808354040283529160200191610d15565b820191906000526020600020905b815481529060010190602001808311610cf857829003601f168201915b50505050508152602001600482018054600181600116156101000203166002900480601f016020809104026020016040519081016040528092919081815260200182805460018160011615610100020316600290048015610db75780601f10610d8c57610100808354040283529160200191610db7565b820191906000526020600020905b815481529060010190602001808311610d9a57829003601f168201915b50505091835250506005820154602082015260068201546040820152600782015460608201526008820154600160a060020a03166080820152600982015460a0820152600a82015460c0820152600b82015460e0820152600c8201546101009091019060ff166002811115610e2857fe5b6002811115610e3357fe5b8152602001600c820160019054906101000a900460ff166001811115610e5557fe5b6001811115610e6057fe5b9052509050805181602001518260400151836060015184608001518560a001518660c001518760e00151886101800151896101a001518898508797508696508595509a509a509a509a509a509a509a509a509a509a50509193959799509193959799565b60005481565b6000806000610ed7611806565b600085815260026020908152604080832054600160a060020a031683526001825280832088845290915290819020906101c09051908101604052908160008201548152602001600182018054600181600116156101000203166002900480601f016020809104026020016040519081016040528092919081815260200182805460018160011615610100020316600290048015610fb55780601f10610f8a57610100808354040283529160200191610fb5565b820191906000526020600020905b815481529060010190602001808311610f9857829003601f168201915b50505050508152602001600282018054600181600116156101000203166002900480601f0160208091040260200160405190810160405280929190818152602001828054600181600116156101000203166002900480156110575780601f1061102c57610100808354040283529160200191611057565b820191906000526020600020905b81548152906001019060200180831161103a57829003601f168201915b50505050508152602001600382018054600181600116156101000203166002900480601f0160208091040260200160405190810160405280929190818152602001828054600181600116156101000203166002900480156110f95780601f106110ce576101008083540402835291602001916110f9565b820191906000526020600020905b8154815290600101906020018083116110dc57829003601f168201915b50505050508152602001600482018054600181600116156101000203166002900480601f01602080910402602001604051908101604052809291908181526020018280546001816001161561010002031660029004801561119b5780601f106111705761010080835404028352916020019161119b565b820191906000526020600020905b81548152906001019060200180831161117e57829003601f168201915b50505091835250506005820154602082015260068201546040820152600782015460608201526008820154600160a060020a03166080820152600982015460a0820152600a82015460c0820152600b82015460e0820152600c8201546101009091019060ff16600281111561120c57fe5b600281111561121757fe5b8152602001600c820160019054906101000a900460ff16600181111561123957fe5b600181111561124457fe5b9052509050610100810151816101200151826101400151935093509350509193909250565b600082815260026020908152604080832054600160a060020a0316835260018252808320858452909152812060058101544210156112a657600080fd5b60068101544211156112b757600080fd5b600781015434116112c757600080fd5b600160a060020a033381166000908152600d83016020908152604080832087845290915290205416156112f957600080fd5b60806040519081016040908152600160a060020a03331680835260208084018890523483850152600060608501819052918252600d850181528282208783529052208151815473ffffffffffffffffffffffffffffffffffffffff1916600160a060020a039190911617815560208201518160010155604082015181600201556060820151600391909101805460ff191691151591909117905550600b01805460019081019091559392505050565b6000806113b3611931565b600086815260026020908152604080832054600160a060020a03168352600182528083208984529091528120600681015490945042116113f257600080fd5b85856040518083805190602001908083835b602083106114235780518252601f199092019160209182019101611404565b6001836020036101000a038019825116818451161790925250505091909101905082805190602001908083835b6020831061146f5780518252601f199092019160209182019101611450565b6001836020036101000a038019825116818451161790925250505091909101935060409250505051908190039020600160a060020a0333166000908152600d860160209081526040808320848452909152908190209194506080905190810160409081528254600160a060020a031682526001830154602083015260028301549082015260039091015460ff1615156060820152915060008251600160a060020a03161161151c57600080fd5b81606001511561152b57600080fd5b611534866116da565b60038190556040830151101561155057816040015190506116d1565b6008840154600160a060020a031615156115af5760088401805473ffffffffffffffffffffffffffffffffffffffff191633600160a060020a03161790556003805460098601556007850154600a860155546040830151039050611663565b83600901546003541115611640576009840154600a85018190556008850154600160a060020a03169080156108fc0290604051600060405180830381858888f1935050505015156115ff57600080fd5b60088401805473ffffffffffffffffffffffffffffffffffffffff191633600160a060020a0316179055600354600985018190556040830151039050611663565b83600a0154600354111561165e5750600354600a8401819055611663565b506003545b60008111156116d157600160a060020a03331681156108fc0282604051600060405180830381858888f19350505050151561169d57600080fd5b600160a060020a0333166000908152600d8501602090815260408083208684529091529020600301805460ff191660011790555b50505050505050565b60006116e461191f565b50816000805b82518110156117fe577f300000000000000000000000000000000000000000000000000000000000000083828151811061172057fe5b016020015160f860020a900460f860020a027effffffffffffffffffffffffffffffffffffffffffffffffffffffffffffff1916101580156117c157507f390000000000000000000000000000000000000000000000000000000000000083828151811061178a57fe5b016020015160f860020a900460f860020a027effffffffffffffffffffffffffffffffffffffffffffffffffffffffffffff191611155b156117f65760308382815181106117d457fe5b016020015160f860020a900460f860020a0260f860020a90040382600a020191505b6001016116ea565b509392505050565b6101c0604051908101604052806000815260200161182261191f565b815260200161182f61191f565b815260200161183c61191f565b815260200161184961191f565b81526020016000815260200160008152602001600081526020016000600160a060020a031681526020016000815260200160008152602001600081526020016000600281111561189557fe5b81526020016000905290565b828054600181600116156101000203166002900490600052602060002090601f016020900481019282601f106118e257805160ff191683800117855561190f565b8280016001018555821561190f579182015b8281111561190f5782518255916020019190600101906118f4565b5061191b929150611958565b5090565b60206040519081016040526000815290565b60806040519081016040908152600080835260208301819052908201819052606082015290565b61197291905b8082111561191b576000815560010161195e565b905600a165627a7a7230582015e56c9092e3966fba13e26c1ea83c25d096979555e04d409f4592e624eda3670029",
  "source": "///author: Bitboyz\r\n// Declare compiler version\r\n\r\n\r\npragma solidity ^0.4.2;\r\n\r\n\r\ncontract EcommerceStore {\r\n\t enum ProductStatus { Open, Sold, Unsold }\r\n\t enum ProductCondition { New, Used }\r\n\r\n\t uint public productIndex;\r\n\t mapping (address => mapping(uint => Product)) stores;\r\n\t mapping (uint => address) productIdInStore;\r\n\t uint amount;\r\n\r\n\t struct Product {\r\n\t  uint id;\r\n\t  string name;\r\n\t  string category;\r\n\t  string imageLink;\r\n\t  string descLink;\r\n\t  uint auctionStartTime;\r\n\t  uint auctionEndTime;\r\n\t  uint startPrice;\r\n\t  address highestBidder;\r\n\t  uint highestBid;\r\n\t  uint secondHighestBid;\r\n\t  uint totalBids;\r\n\t  ProductStatus status;\r\n\t  ProductCondition condition;\r\n\t  mapping (address => mapping (bytes32 => Bid)) bids;\r\n \r\n\t} \r\n\tstruct Bid {\r\n\t  address bidder;\r\n\t  uint productId;\r\n\t  uint value;\r\n\t  bool revealed;\r\n\t}\r\n\r\n\t\r\n\tfunction stringToUint(string s) pure private returns (uint) {\r\n\t  bytes memory b = bytes(s);\r\n\t  uint result = 0;\r\n\t  for (uint i = 0; i < b.length; i++) {\r\n\t    if (b[i] >= 48 && b[i] <= 57) {\r\n\t      result = result * 10 + (uint(b[i]) - 48);\r\n\t    }\r\n\t  }\r\n\t  return result;\r\n\t}\r\n\r\n\t function EcommerceStore() public {\r\n\t  productIndex = 0;\r\n\t }\r\n\r\n\r\n\tfunction addProductToStore(string _name, string _category, string _imageLink, string _descLink, uint _auctionStartTime,\r\n\t  uint _auctionEndTime, uint _startPrice, uint _productCondition) public {\r\n\t\t  // require (_auctionStartTime < _auctionEndTime);\r\n\t\t  productIndex += 1;\r\n\t\t  \tProduct memory product = Product(productIndex, _name, _category, _imageLink, _descLink, _auctionStartTime, _auctionEndTime,\r\n\t\t\t\t   _startPrice, 0, 0, 0, 0, ProductStatus.Open, ProductCondition(_productCondition));\r\n\t\t  stores[msg.sender][productIndex] = product;\r\n\t\t  productIdInStore[productIndex] = msg.sender;\r\n\t}\r\n\r\n\tfunction getProduct(uint _productId) view public returns (uint, string, string, string, string, uint, uint, uint, ProductStatus, ProductCondition) {\r\n\t  Product memory product = stores[productIdInStore[_productId]][_productId];\r\n\t  return (product.id, product.name, product.category, product.imageLink, product.descLink, product.auctionStartTime,\r\n\t      product.auctionEndTime, product.startPrice, product.status, product.condition);\r\n\t}\r\n\t\t\r\n\t\t\r\n\tfunction bid(uint _productId, bytes32 _bid) payable public returns (bool) {\r\n\t  Product storage product = stores[productIdInStore[_productId]][_productId];\r\n\t  require (now >= product.auctionStartTime);\r\n\t  require (now <= product.auctionEndTime);\r\n\t  require (msg.value > product.startPrice);\r\n\t  require (product.bids[msg.sender][_bid].bidder == 0);\r\n\t  product.bids[msg.sender][_bid] = Bid(msg.sender, _productId, msg.value, false);\r\n\t  product.totalBids += 1;\r\n\t  return true;\r\n\t}\r\n\r\n\tfunction revealBid(uint _productId, string _amount, string _secret) public {\r\n\t  Product storage product = stores[productIdInStore[_productId]][_productId];\r\n\t  require (now > product.auctionEndTime);\r\n\t  bytes32 sealedBid = sha3(_amount, _secret);\r\n\r\n\t  Bid memory bidInfo = product.bids[msg.sender][sealedBid];\r\n\t  require (bidInfo.bidder > 0);\r\n\t  require (bidInfo.revealed == false);\r\n\r\n\t  uint refund;\r\n\r\n\t  amount = stringToUint(_amount);\r\n\r\n\t  if(bidInfo.value < amount) {\r\n\t   // They didn't send enough amount, they lost\r\n\t   refund = bidInfo.value;\r\n\t  } else {\r\n\t   // If first to reveal set as highest bidder\r\n\t   if (address(product.highestBidder) == 0) {\r\n\t    product.highestBidder = msg.sender;\r\n\t    product.highestBid = amount;\r\n\t    product.secondHighestBid = product.startPrice;\r\n\t    refund = bidInfo.value - amount;\r\n\t   } else {\r\n\t    if (amount > product.highestBid) {\r\n\t     product.secondHighestBid = product.highestBid;\r\n\t     product.highestBidder.transfer(product.highestBid);\r\n\t     product.highestBidder = msg.sender;\r\n\t     product.highestBid = amount;\r\n\t     refund = bidInfo.value - amount;\r\n\t    } else if (amount > product.secondHighestBid) {\r\n\t     product.secondHighestBid = amount;\r\n\t     refund = amount;\r\n\t    } else {\r\n\t     refund = amount;\r\n\t    }\r\n\t   }\r\n\t   if (refund > 0) {\r\n\t    msg.sender.transfer(refund);\r\n\t    product.bids[msg.sender][sealedBid].revealed = true;\r\n\t   }\r\n\t  }\r\n\t}\r\n\t\r\n\tfunction highestBidderInfo(uint _productId) view public returns (address, uint, uint) {\r\n\t  Product memory product = stores[productIdInStore[_productId]][_productId];\r\n\t  return (product.highestBidder, product.highestBid, product.secondHighestBid);\r\n\t}\r\n\r\n\tfunction totalBids(uint _productId) view public returns (uint) {\r\n\t  Product memory product = stores[productIdInStore[_productId]][_productId];\r\n\t  return product.totalBids;\r\n\t}\r\n\r\n\r\n}\r\n",
  "sourcePath": "/mnt/c/Users/Marcus/Desktop/BlockChain/ebay_dapp/contracts/EcommerceStore.sol",
  "schemaVersion": "1.0.0",
  "updatedAt": "2017-12-18T23:33:38.214Z"
}